:02000002B0004C
:1040000000400B005CA60B00000006000C0005023F
:084010000401E50C00000000B2
:04401800748F0B0096
:1040200009480A49884208B505D0094A824202D0A7
:10403000121A04F03BFE0748074A0021121A04F046
:1040400043FE014808BD00BF24E50320C8A50B00BE
:1040500090E5032090E50320EDE7032070B5074EBF
:10406000074C03F0FBF9A41BA4080025AC4200D1C7
:1040700070BD56F8043B98470135F7E774A50B006F
:1040800098A50B0000F0E8BC08B500F0D9FEBDE82B
:10409000084003F09BB902F0E9BD02F0E7BD02F071
:1040A000EDBD000008B5034A03490C2002F032FDC3
:1040B000FEE700BF15680B00888F0B000078B0FA90
:1040C00080F04009704701230370704708B502F083
:1040D000A9FB034B1860BDE8084002F0B7BD00BF64
:1040E00040E7032003682BB14268934202D218468E
:1040F00004F0D4BD0020704738B50568044645B1CA
:1041000043689D4205D2284604F026FE013005444E
:104110002560204638BDF8B5044647680D4621B9EC
:1041200003687A1C4260D955F8BD084604F014FEB5
:10413000A368461CF2199A42F6D8206832462946EE
:10414000384404F0B3FD606830446060ECE7000080
:1041500038B504460B46D0E901012568044A091A1E
:10416000284402F09BFD636801300344636038BD5E
:104170009D8F0B0038B504460B46D0E90101256838
:10418000044A091A284402F089FD63680130034497
:10419000636038BDA08F0B0038B51248124D134C28
:1041A00001F02BFD2060284601F0B0FF00231049EC
:1041B0002B61284603F027F82468002C10DA2D2103
:1041C000284603F011F861420A22074803F025F857
:1041D000054803F00CF8BDE83840034802F004BA83
:1041E0002146F1E794E6032000E60320FCE50320E6
:1041F000A48F0B0010B5244C88B0204601F086FF38
:10420000002322492361204602F0FDFF204BD3E921
:10421000000104F015FD0A220146684602F03FFF46
:10422000694604A802F01EFF1A4904A802F06DFFB7
:104230000168204602F0E7FF04A802F0A5FE6846E8
:1042400002F0A2FE144BD3E9000104F0F9FC0A22AB
:104250000146684602F023FF694604A802F002FF07
:104260000E4904A802F051FF0168204602F0CBFF7E
:1042700004A802F089FE684602F086FE204608B0D7
:10428000BDE8104002F0B0B900E60320B98F0B0082
:10429000A0E60320C68F0B00A8E60320D08F0B00FA
:1042A0002DE9F043DFF880818BB04FF0000910203A
:1042B00003F02BFF4FF6FE73009340F6FF720123CD
:1042C000002103F035F80646052003F00BFF012816
:1042D0004B4F0AD1D8F80030002B06DCC820C8F8B4
:1042E000006003F031F800250CE0052003F0FAFE31
:1042F00001280546F7D13B68002BF4DCC8203E605E
:1043000003F022F83F493B683F4CD8F800209A421E
:10431000D4BF0A600B603D4920469A42ACBF0A6098
:104320000B6001F0F3FE3A49C4F81090204602F009
:104330006AFF384906A802F072FE0A22314602A836
:1043400002F0ADFE02A906A802F0D3FE01682046E5
:1043500002F059FF02A802F017FE06A802F014FEB0
:104360002D4906A802F05BFE0A22D8F8001002A828
:1043700002F095FE02A906A802F0BBFE01682046E5
:1043800002F041FF02A802F0FFFD06A802F0FCFDCA
:10439000224906A802F043FE0A22396802A802F068
:1043A0007EFE02A906A802F0A4FE0168204602F0E3
:1043B0002AFF02A802F0E8FD06A802F0E5FD20466B
:1043C00002F012F9002D3FF472AF4FF4FA7002F0D0
:1043D000BBFF204601F09AFE1149C4F81090204618
:1043E00002F011FF0F49204602F00DFF204602F0B7
:1043F000FBF840F2DC500BB0BDE8F04302F0A4BF84
:1044000090E6032084E6032000E6032070E6032004
:10441000DD8F0B00EE8F0B00FD8F0B0008900B0063
:1044200013900B00E18F0B008CE6032008B50023EE
:104430004377006803F0A0FCBDE8084002F074B9BF
:104440002DE9F04301EB02098FB04945CDE905198B
:1044500080460D46164680F0928005A80F88FFF72B
:104460004BFE03684B4580F08A8005A8FFF73AFEB3
:1044700047F276239F42C4B200F0A98027D847F2C2
:1044800061239F427ED047F264239F4242D046F68A
:1044900070539F4228D1634E634FDFF8A081059B84
:1044A00099456CD905A8FFF71DFEC4B205A8FFF712
:1044B00023FE059D3146284604F03CFC0146E0B948
:1044C000204603F0E5FD05A8FFF716FEE7E747F2F3
:1044D00064739F423FD047F276739F4200F087801B
:1044E00047F261739F425FD00023CDE9013302227E
:1044F0000092B8F81A20194629E03946284604F0F7
:1045000019FC28B14146284604F014FC0028DAD1F1
:104510000121D5E70AAB4549079307A810230025D9
:10452000CDE90853FFF7F7FD07A82146FFF710FE76
:10453000204603F0D7FD014607A8FFF71BFE089BA6
:10454000CDE90155013B0093079B2A4614214046C3
:1045500000F00EFB13E005A8FFF7CEFD03689945B8
:104560000DD9A4B20121204603F092FD05A8FFF762
:10457000B9FD011E18BF0121204603F09AFD0FB0BE
:10458000BDE8F0830AAB079307A81023284900254C
:10459000CDE90853FFF7BFFD07A82146FFF7D8FD77
:1045A000204603F0B2FDC6E705A8FFF7A5FD0368A6
:1045B0009945E4D9A4B20121204603F069FD05A87C
:1045C000FFF790FD0146204603F0B6FDD7E72046F1
:1045D0008DF8284002F0AAF803460AA823B1154A2C
:1045E000934201D09847CAE702F09CF8C7E705A8B4
:1045F000FFF782FD059B8DF81C405D1B751B204657
:10460000CDE90A350C9502F09BF803460AA907A8E4
:1046100023B1094A934201D09847B0E702F083F8EA
:10462000ADE700BF29900B002C900B0034900B00DD
:1046300037900B0025670B0027670B0030900B00AD
:104640002DE9F0418CB004AF044605220068391D05
:1046500002F047FE98B3052804D000202037BD465D
:10466000BDE8F081B7F805305BBA9AB2A7F805301B
:10467000B7F807305BBA1FFA83F8A7F80730002AAB
:10468000EBD03B7923BB02F04BF80246E060607F41
:10469000B7F80730C0B9B7F80510012914D1092BB4
:1046A0000FD0C82B01D0042BD8D101256261204640
:1046B000657700F057FBFFF709FD02F035F80120A0
:1046C000CCE703236377C9E7581F18BF0120C5E76C
:1046D000B8F5806F03D92046FFF7A8FEEFE708F191
:1046E00008036E46DB08A6EBC3039D4604AD2068B5
:1046F0004246294602F0F5FD80454FF000007FD18B
:10470000B7F80730E85402F00BF83B79E060142B5F
:1047100000F0A68048D80F2B00F0A28007D8022B0B
:1047200048D0062B51D02046FFF780FE58E0112BD1
:10473000F9D100233B70B7F807302B449D42C7E9FD
:1047400003534DD207F10C00D5F80080FFF7D4FCDD
:10475000FB68B7F807105D1B4D1BC7E905357B6883
:10476000FD61C3F30F236383644B984500F0BF8062
:1047700000F28C80A3F57F236FF4007213449845F8
:1047800000F09D8079D8A3F50033063B984500F0F2
:104790009C8003F50033033398456BD107F1140176
:1047A000384601F0C0FF65E0292B1BD0372B17D00E
:1047B0001D2BB8D1637F43B901236377204600F0F6
:1047C000D1FAFFF783FC01F0AFFF0023C821B7F84F
:1047D00005200091CDE901331946204600F0C8F9C3
:1047E00001200DE0A3681BB9402002F03FFAA06051
:1047F000B7F80780A8444545C7E9055802D300200B
:10480000B5462BE729464022A06804F0ADFAA3681C
:10481000002583F83F5007F11400FFF76DFC036893
:1048200098451BD9786920B1BB69984214D204F02D
:1048300039FA85B2206803F09FFA2368A2685A63A8
:104840001D870023637701F06BFFA0F59C500838AB
:10485000C4E903006061C3E72846EAE75025E9E7B9
:104860007B68B7F80720C3F30F23638329462046EC
:10487000FFF7E6FD00236383B2E7214B9845F9D1AA
:1048800007F11401384601F04EFFF3E71D4B984540
:1048900021D003F19F6303F5003303F5807398453E
:1048A0001FD003F16E4303F5302303F5867398455B
:1048B000E0D107F11401384601F035FFDAE707F1DE
:1048C0001401384601F02FFFD4E707F114013846F0
:1048D00001F029FFCEE707F11401384601F023FF6C
:1048E000C8E707F11401384601F01DFFC2E707F1E0
:1048F0001401384601F017FFBCE700BF766673006D
:104900006462670061636F6E2DE9F04104468CB00C
:104910000D46FFF7DBFB637F022B1ED0237F628BEC
:104920000133DBB22377AAB9022B13D8206803F036
:10493000EBF8A8B125B9206803F0C4F900280FDD11
:104940002046FFF77DFE0028F5D1206803F014FA19
:1049500001F0EAFE237F013B23770CB0BDE8F08134
:1049600001F0DEFE0546206803F0CEF8677F012FD8
:10497000064624D120B965612046FFF757FDE9E7D7
:10498000E3684FF21862EB1A9342F5D84AF6C87200
:10499000934203D82369EB1A9342DBD9636941F24E
:1049A0007072EB1A9342D5D90023CDE901330093FD
:1049B0001A460621204600F0DBF86561CAE7002FA1
:1049C000C8D16369EB1A40B141F270729342C1D908
:1049D000206803F0D1F96777BCE741F2883293424F
:1049E000B8D9206803F0C8F9D4F800C0DCF834E086
:1049F000BCF83880BEF1000F1BD0334642467146EA
:104A0000604603F003F80128D7D1636805930125B8
:104A10001846258304F0A0F90022CDE90122059B68
:104A200000902A461D21204600F0A2F82369636108
:104A300090E7084B06930CF120070FCF07AE0FC687
:104A40003B6833704246734606A9604603F0BEF8E1
:104A5000D9E700BF5CA10B002DE9F04194B0A2237F
:104A6000AC22A721009302A8EA2302F0A7FD03AC21
:104A700040F6B83001F052FE0FCC09AF0FC7384DE9
:104A800023683B70374B6B6001F04AFEA0F59C50E9
:104A900008380DF1240CC5E903006861BCE80F007B
:104AA0000FAE0FC62C683B6833700FAF41F69073A2
:104AB00023870FCF4FF00008C4F8348020340FC490
:104AC0003368237044F24F66286803F055F985F87F
:104AD0001D8001F025FE04466B7F012B0CD001F0F8
:104AE0001FFE001BB04204D800212846FFF70CFF30
:104AF000F2E76B7F012BE7D103F09CFB02F08EFE07
:104B000003F098FB0146184801F062F9164801F0DD
:104B1000F2F8164800F07EFF14484FF0011343618D
:104B2000012100F028FF0021102003F0B1FA00213C
:104B3000052003F0ADFA00210E2003F0A9FA0121AF
:104B4000062003F0A5FA0121082003F0A1FA0121B3
:104B5000072003F09DFA14B0BDE8F041FFF7A0BBB9
:104B600090E503203A900B0094E6032000E6032032
:104B70002DE9F04F83B000AF044600683D6B8846D6
:104B800016469946EB4602F0BFFF00287FD0B8F1E9
:104B90001D0F04D84C4B23FA08F3DB0702D4637FC4
:104BA000012B74D146B9668B36B9238B01339BB286
:104BB000002B71D02383268BA8F10C03082B16D869
:104BC000D4E90323934238BF134603F1420A01F0AC
:104BD000A7FDAAEB0000002860DB00212046FFF7BC
:104BE00093FE01F09DFDAAEB00000028F5DAB9F173
:104BF000000F5AD06B1D7A6B002ABA6B08BF0022D7
:104C000003EB020A0AF1070323F00703ADEB030DE0
:104C1000BB6BC7F804D0EA18C2F3072376BA43EA9D
:104C200002238DF80080ADF80160ADF80330B9F1D2
:104C3000000F3CD0002D3AD02A4649460DF1050020
:104C400004F034F8681D7B6B3BB1BB6B2BB11A468B
:104C50007B68796B184404F029F8002555452AD261
:104C6000AAEB05027B682068B2F5806F28BF4FF47D
:104C70008062591902F01FFE0646002001F04EFD29
:104C8000BEB9206803F078F8667701F04DFD0C3767
:104C9000DD46BD46BDE8F08F01238BE7217F00296B
:104CA000A5D12046FFF730FEA1E70523A3E70520A5
:104CB000C9E73544D2E703D02046FFF7B7FBE6E764
:104CC00001F02EFD2061E2E74500002030B5ADF295
:104CD000244D08AB00240546059305A84FF48063D6
:104CE000CDE90643FFF717FA069B013B0093CDE998
:104CF0000144059B22460E212846FFF739FF0DF29D
:104D0000244D30BD38B5086803F0C8FFE0B10F4B43
:104D10000F4C00251D600F4B20461D6001F0F6F979
:104D20000D492561204602F06EFA0C490C48FFF748
:104D3000CDFF204601F058FC4FF47A7002F004FBDE
:104D4000BDE83840FFF7ACBA38BD00BF8CE60320A1
:104D500000E6032090E603205B900B0070900B00B0
:104D600090E5032000B595B004AB002201934F23DA
:104D700000930292034B1121FFF7FAFE15B05DF884
:104D800004FB00BF60910B0070B52DED028BB0EEFF
:104D9000408AF0EE608AADF5846D08AB00240546CC
:104DA0000E46059305A84FF480631349CDE90643E9
:104DB000FFF7B1F9314605A8FFF7CAF9DDE9063179
:104DC00005980E4AC91A8DED008B184401F066FF54
:104DD000431C069803440693013B0093CDE901442C
:104DE000059B224614212846FFF7C2FE0DF5846D6F
:104DF000BDEC028B70BD00BF84900B0087900B0050
:104E000030B5ADF2244D08AB00240546059305A846
:104E10004FF480630968CDE90643FFF77CF9069BF0
:104E2000013B0093CDE90144059B22460E21284613
:104E3000FFF79EFE0DF2244D30BD00000000000083
:104E4000F0B5002189B08448844FFFF75DFD8348A9
:104E500000F009FE0E2003F058F9814AC117C2E99B
:104E6000000103F0A5FC76A3D3E9002303F0D6FCF0
:104E700075A3D3E9002303F0FBFD7A4B04460D46EE
:104E8000C3E900450022784B03F010FB774B00226A
:104E900003F0C4FC764B04460D46C3E900456CA301
:104EA000D3E9002303F0BAFC0022724B03F000FBAD
:104EB000714B41EC100BC3E9000167480021FFF77B
:104EC00063FF664800F0E8FD002847D06B496C4856
:104ED00002F0D3F869496A486A4E6B4D02F02AF92C
:104EE000002848D0FFF758F90021062003F0E1F828
:104EF000664C674F0021082003F0DBF800210720F3
:104F000003F0D7F8236863483B6000F076FE2B6817
:104F10002060984278DA6049604802F0AEF80121DA
:104F2000082003F0C6F83A6833689A427DDD2168AC
:104F30008B427ADD5A4904A802F071F8574904A857
:104F400002F0D7F8574902F0E0F801464248FFF76F
:104F500057FF04A802F018F809B0F0BD384600F079
:104F6000A5FD08B15049B2E7384600F0A9FD002878
:104F7000B0D04E49ABE74C49414802F0DBF804465B
:104F800010B1FFF737F9AFE748493D4802F0D2F8D2
:104F90000028A9D0314801F0B9F845493C612F48B3
:104FA00002F031F9434904A802F039F80A223168C5
:104FB000684602F074F8694604A802F09AF801689D
:104FC000264802F020F9684601F0DEFF04A801F04F
:104FD000DBFF394904A802F022F80A222968684652
:104FE00002F05DF8694604A802F083F801681B48E6
:104FF00002F009F9684601F0C7FF04A801F0C4FFF8
:10500000164801F0F1FA6FE73368984206DD2B4944
:10501000224802F032F80121062082E728491F4881
:1050200002F02BF8012107207BE72B689A4293DAE4
:105030002268934290DA23497DE700BFAFF30080F6
:105040006666666666660A400000000000FEAF40C5
:10505000CDCCCCCCCCCCFC3F90E5032000E60320AB
:1050600098E60320B0E603200000E03F000059402E
:10507000A0E6032000004040A8E603208D900B002E
:10508000B0E5032070E6032084E60320FCE503205E
:1050900088E6032094E60320B5900B0074E6032015
:1050A000C3900B0082900B00C0910B008F900B00FF
:1050B00091900B009E900B00AA900B00B9900B00F2
:1050C000BE900B000E910B0038B5144D284602F02F
:1050D0009DFE05F11C0002F02DFA114B1148002431
:1050E000C3E90054C3E90244C3E904449C619C83BE
:1050F0006C632C8700F047FD07210B4800F05CFC37
:105100002146012001F026FD0849094801F087FFEA
:10511000BDE838400749084801F081BFC0E50320D9
:1051200090E5032094E6032000E603200D910B0098
:1051300074E603208D900B00B0E50320704710B596
:1051400010210446FEF7ABFF204610BD0EB403B598
:1051500003AB002153F8042B019302F07CF802B05A
:105160005DF804EB03B0704773B504460846227936
:10517000A36832B1A3B90B4902B0BDE8704002F098
:105180002FB8094A267B094D0949647B012E18BFB7
:105190002946CDE900140749FFF7D8FF02B070BDDA
:1051A000054AEFE7C2910B000D910B00BE910B0079
:1051B000BA910B00D8910B00B1910B002DE9F04F83
:1051C00085B01F46BDF93880BDF83C30A8EB020918
:1051D000A7EB010AB9F1000FB8BFC9F10009BAF194
:1051E000000FB8BFCAF1000AD14583460C461546E8
:1051F00004DD3A462C4647460D469046BC4205DD46
:105200002A464546904622463C4617463E1BB2B2C9
:105210000092A8EB050282EAE271A1EBE271C6F30B
:10522000C03202FA86F64545B4BF01224FF0FF3284
:10523000019176100292BC421CDCDBF80020039343
:10524000D145D2F81880C7BF294622462A462146B2
:105250005846C047019A039BB61AB1B236B2002E27
:1052600005DA029A1544009A56182DB236B2013466
:1052700024B2E0E705B0BDE8F08F704710B40468D1
:105280002469A4465DF8044B604730B40468BDF857
:1052900008500295A46BA44630BC604730B4046843
:1052A000BDF808500295E46BA44630BC604770B46A
:1052B000BDF90C50BDF810600468CDE90356246CAC
:1052C000A44670BC60472DE9F3411C460368BDF855
:1052D00020805B6905461646013C34440F4624B2E3
:1052E00098472B68CDF8048000949C6A28463B467A
:1052F00032463946A0472B68DB6A284602B0BDE833
:10530000F04118472DE9F3411D460368BDF82080A0
:105310005B69044617460E469847CDE90078226837
:105320006B1E3344956A20461BB23A463146A84765
:105330002368DB6A204602B0BDE8F04118472DE93A
:10534000F3471E460368BDF928905B69BDF82C80C1
:105350000C460546174698472644B4422B680BDA9C
:10536000CDF80080D3F820A021464B463A46284687
:105370000134D04724B2F0E7DB6A284602B0BDE82A
:10538000F047184713B502680191B0F90E1000916B
:10539000146CB0F90C3000221146A04702B010BDC9
:1053A0002DE9F74399421646BDF92870BDF82C90B7
:1053B000026880460D461C4613D1BE42C8BF334624
:1053C000CDF82890C4BF3E461F467B1C946B9B1BA8
:1053D0001BB2324629464046A44603B0BDE8F0431E
:1053E0006047BE420AD19942C2BF0B4625461C46C1
:1053F000631CCDF82890D46B5B1BE9E75369984791
:10540000CDE90079D8F8003040469F6A32462346FD
:105410002946B847D8F80030DB6A404603B0BDE8FB
:10542000F04318472DE9F3471D460368BDF82C806B
:105430005B69BDF9289004460F46164698472368D5
:10544000CDF80080D3F824A032462B4639462046BA
:10545000D0472368CDF8008009F1FF323244D3F8F9
:1054600024A039462B46204612B2D0472368CDF8F7
:105470000080D3F820A032464B4639462046D0471C
:105480006B1ED9192368CDF800801D6A20464B4653
:10549000324609B2A8472368DB6A204602B0BDE85D
:1054A000F0471847704701F00303B0F90A208376EC
:1054B000C907B0F9083059BF8381C2818281C38195
:1054C0007047000030B54281C281074A074D018113
:1054D000002481814FF0FF31C0E90512446005606E
:1054E00004610477046230BD0101000100970B00E4
:1054F0002DE9F04F89B0CDE902120268BDF948806C
:105500000493BDF94C3052690593BDF850A0044690
:10551000904718F107024FF0000648BF08F10E024D
:105520004FEAE20B01963546039B019ABDF9041040
:105530009A18059B8B4212B227DD049B33444FF02F
:10554000000906930FFA89F080451FFA89F117DDEB
:105550004F0705BF069BC0106D001D5C18BFEDB264
:105560002B060AD5029B206807921944836909B269
:105570001F4620465346B847079A09F10109E1E75B
:10558000019B013301935E44CEE72368DB6A20462A
:1055900009B0BDE8F04F18472DE9F04F2DED028B13
:1055A00091B01646026ABDF874809DF878509DF857
:1055B0007C4003911F46BDF8703004938346002A57
:1055C00040F0C580B0F90C308B4240F34C81B0F90B
:1055D0000E30B34240F34781062313FB0513002B23
:1055E00040F3418106EBC403002B40F33C81037F71
:1055F0001BB9AF2F84BF0137FFB2DBF8003058462C
:105600005B6998470522099200220592984A07EBA8
:105610008703D3180C93B3B20693059A0C9B9B5C3B
:105620000793ABB20B93BDF80C300893039B02FBBE
:1056300005F919FA83F90FFA89F308EE103A0823ED
:105640000A93039B02EB030A4FF000090FFA8AFA50
:10565000079ADBF80030D20752D5012D1FFA89F2E4
:105660003ED1012C3CD19B6906991F46049B0A44FC
:1056700012B251465846B84709F101034FFA83F96F
:10568000079B5B0807930A9B013B13F0FF030A93F8
:10569000DED1059F01377BB20593099B013B13F0D7
:1056A000FF030993B9D1049B43450FD0012DDBF8CB
:1056B00000303BD1012C39D10899CDF8008005315B
:1056C0001C6A3246082309B25846A047DBF800306E
:1056D000DB6A584611B0BDEC028BBDE8F04F1847AD
:1056E000069914FB02F20A44049901910094DB69C3
:1056F00018EE101A1F4612B22B465846B847BBE7A1
:10570000049A4245B8D0012D1FFA89F207D1012C25
:1057100005D19B6906991F460A444346A8E70699A6
:10572000CDF8048014FB02F20A44DFE70B9ACDF8AF
:10573000048002EB8201089AE4000A4411460094B6
:10574000DC6932462B4609B25846A047BEE7137AB9
:10575000516812680B92FF1AFFB201EBC70331F8D0
:10576000372006929A780992DA780C92012D93F9F3
:10577000052093F906A00A9201D8012C57D9BDF94A
:10578000283008930FFA8AF30793DBF80030584665
:105790005B699847B3B24FF000080E931AFA86F38C
:1057A000C14647460F930C9B9F428FD2079B0E9A90
:1057B0003B4403FB0423002205920F9A1BB202EB29
:1057C000070A08EE103A0FFA8AFA4346099A059931
:1057D000914241D25A1CD2B25B070D9207D1069B6F
:1057E00006990B9A01339BB212F80190069319F0B7
:1057F000800F12D0012DDBF80030BDF80C101AD14B
:10580000012C18D10A9A9B691144059A11441E462D
:105810005246049B09B25846B047059E0136F3B282
:105820004FEA490905935FFA89F90D9BCEE70023FA
:10583000CDE90733A9E70598089A024402FB051150
:10584000049ACDE90042DB6918EE102A1E4609B21F
:105850002B465846B047E0E7099B013798445FFA6A
:1058600088F8FFB29FE711B0BDEC028BBDE8F08F66
:10587000F5910B00F0B5026A85B004460B46002A8C
:1058800034D10A2908D1438A0282427E03EBC20343
:105890006382012005B0F0BD0D29FAD0E17E007EC3
:1058A000657E71B1B4F91060062111FB0061B4F995
:1058B0000C60B142C1BFB4F91210228201EBC502E3
:1058C0006282E28A0192A28A0092CDE90205B4F9CD
:1058D0001220B4F910102046FFF75EFE237E228AC4
:1058E00003EB430302EB43032382D2E70A2907D1E8
:1058F00000230382417E927A438A01FB0233C7E789
:105900000D29C6D0157AA942C3D3517A9942C0D382
:1059100051685D1BEDB201EBC505A87828B3E978A5
:1059200019B3E17E267E677E91B195F90510084492
:10593000B4F9101006FB0011B4F90C00814207DD28
:1059400000202082B4F91210927A02FB07126282C0
:10595000E28A0192A28A0092CDE90267B4F912208C
:10596000B4F910102046FFF717FE2979227E238A0A
:1059700001FB0233B8E7012938BF012101764176E6
:105980007047000010B5064B03600446006D08B177
:1059900000F058FF204600F047FA204610BD00BF37
:1059A00058970B0010B50446FFF7ECFF2046702116
:1059B000FEF775FB204610BD30B585B004460D4698
:1059C00002F038FC104A1149CDE901214FF0FF32B5
:1059D0008021034600922046202200F09DFA0C4BC5
:1059E00023600023C4E9143504F1580000F072F874
:1059F00004F1600000F06EF804F1680000F06AF84D
:105A0000204605B030BD00BF801A0600A086010008
:105A100058970B0013B50446503000F00BFF636D30
:105A2000D90705D50222042104F1580000F066F8D8
:105A3000636D9A0705D50022032104F1600000F090
:105A40005DF8636D5B0705D50222114604F168001D
:105A500000F054F8012300933C220221204600F07C
:105A600063FB02B010BD10B5436DD907044602D5E3
:105A7000583000F050F8636D9A0703D504F16000C8
:105A800000F049F8636D5B0705D504F16800BDE8D7
:105A9000104000F040B810BD436D024613F0010005
:105AA00003D002F1580000F066B87047436D02461B
:105AB00013F0020003D002F1600000F05CB8704700
:105AC000436D024613F0040003D002F1680000F0B9
:105AD00052B8704700210A22C0E900127047002323
:105AE00010B50446C171837188B202F0FBFA08B1A7
:105AF0000323A37100F096FE206010BD38B50C465C
:105B000005461146A0B202F0C3FA21462846BDE878
:105B10003840FFF7E4BF38B50446C07902F0E2FA36
:105B2000A579003825F0080318BF0120C5F340050A
:105B30008542A3710AD000F075FEA379206083F03E
:105B40000203A371A079C0F3C00038BD00F06AFE63
:105B50002368C01AA3889842F4D3A37903F0010301
:105B6000AB42EFD000F05EFEA379206083F001032A
:105B700043F00803E5E7807900F00900A0F108038D
:105B8000584258417047704710B50446602100687C
:105B900001F076FE206801F07EFEB0FA80F0400948
:105BA00010BD38B505460C460068602101F068FE5E
:105BB0002868036821469B6898472868002101F0FF
:105BC00066FE08B1002038BD28680222602101F07D
:105BD00054FE286803681B6998470028F2D028689B
:105BE00003685B6998470446286803685B699847BF
:105BF000E4B244EA002080B2E5E70921FFF7D1BF13
:105C00000C21FFF7CEBF70B504460E460068602138
:105C1000154601F035FE2068036831469B689847B9
:105C200020680368E9B29B68984720680368290ADE
:105C30009B689847206801F02EFEB0FA80F040097A
:105C400070BD70B504460D461646FFF7AAFF00F476
:105C50007F4040EA060229462046BDE87040FFF733
:105C6000D2BF70B504460D461646FFF79AFFC0B284
:105C700040EA062229462046BDE87040FFF7C3BF30
:105C800008B5FFF78EFFC0F3072008BD2DE9F041EE
:105C900004469DF818700D46984616466AB1FFF7FF
:105CA00080FFC0B200EA080343EA07022946204603
:105CB00036B1BDE8F041FFF7C4BFFFF7E1FFF1E700
:105CC000BDE8F041FFF7CDBFB1F5A07F07B50ED21B
:105CD0009F290ED84F298CBF402300230093012217
:105CE0003F230321FFF7D2FF03B05DF804FBC0237D
:105CF000F4E78023F2E707B500210091FE2301229B
:105D0000FFF7C4FF03B05DF804FB072907B50FD800
:105D100003290FD810D002290CBF042300230093BD
:105D20000122F1230321FFF7B1FF03B05DF804FB6B
:105D30000E23F4E70C23F2E70823F0E707B500236E
:105D400000930122FE230321FFF7A0FF03B05DF8BB
:105D500004FB07B50F298CBF082300230093002202
:105D6000F7230321FFF792FF03B05DF804FB07B5AB
:105D7000022300930122EF230421FFF787FF03B0E2
:105D80005DF804FBC72907B516D8B32916D89F2993
:105D900016D88B2916D8772916D8632916D84A29F8
:105DA00094BF002101210091F82300220421FFF774
:105DB0006DFF03B05DF804FB0721F4E70621F2E76D
:105DC0000521F0E70421EEE70321ECE70221EAE7F1
:105DD00038B504460846216001F020FD2046FFF753
:105DE000D3FE054610B90025284638BD2046FFF7EA
:105DF00007FFB0F5C37FF6D12046C821FFF7C2FFE9
:105E000020462821FFF760FF20460821FFF77DFF8D
:105E100010212046FFF79DFF2046FFF7A8FF2046F0
:105E2000FFF78CFFE0E7000010B5044B0360044669
:105E3000C06A08B100F022FF204610BD649C0B0030
:105E400010B50446FFF7F0FF20465021FEF727F972
:105E5000204610BD002910B54BDBB0F90C408C4238
:105E600047DD002A45DBB0F90E40944241DD847ED7
:105E7000022C1FD0032C26D0012C04D10489D2433C
:105E800014440A4621B2012B23D0022B32D083BB0B
:105E9000002A13460489C06AB8BFD31DDB1013FB68
:105EA000041102F0070201239340425C22EA03023C
:105EB00042541EE00489013C611A4489D2432244C1
:105EC00009B212B2DFE74489013C641A114622B2DA
:105ED000D9E7002A04891346B8BFD31DDB1013FB92
:105EE0000411C36A02F0070001228240585C024399
:105EF0005A5410BD002A13460489C06AB8BFD31D86
:105F0000DB1013FB041102F00702012303FA02F273
:105F1000435C5A40CCE7000070B504461D4600269D
:105F2000FFF7D0FA114B2360666215B902F082F9CF
:105F30000546FF2384F8333084F836309DF910305D
:105F400084F837300A4BA363012384F83C30059B67
:105F5000A3644FF6FF72069BA286C4E90A56266424
:105F6000A4F84460E364204670BD00BF649C0B004D
:105F7000B0970B00F8B50446806A0D4690B194F9CD
:105F8000301001F081FCA06A036800219B689847EB
:105F9000A06A036829469B689847A06ABDE8F84054
:105FA00001F079BC94F93530014698B202F081F8DD
:105FB000606A20B12946BDE8F84000F081BF08269C
:105FC000802794F9330005EA070180B202F071F8E6
:105FD00094F93400012180B202F06BF894F9340096
:105FE000002180B202F065F8013E4FEA5707E8D180
:105FF000F8BD38B50446806A0D4680B1A16C01F049
:1060000009FC002D204614BFA721A621FFF7B2FFEF
:10601000A06A88B1E16CBDE8384001F0FBBB606A62
:1060200018B104F1380100F0DDFE94F936000021CA
:1060300080B202F03EF8E4E794F93600012180B224
:1060400002F037F8606A18B1BDE8384000F0B0BE21
:1060500038BD2DE9F8430446806A0D468F1840B3D9
:1060600094F9301001F010FCA06A036800219B68CD
:1060700098470126AF42A06A17D01F2E0CD901F015
:106080000AFC94F93010A06A01F0FEFBA06A0368D4
:1060900000219B6898470126A06A15F8011B036838
:1060A00001369B689847F6B2E4E7BDE8F84301F093
:1060B000F2BB94F93530014698B201F0FAFFBD42C7
:1060C00022D0606A15F8019B18B1494600F0F8FE2D
:1060D000F5E708264FF0800894F9330009EA080133
:1060E00080B201F0E6FF94F93400012180B201F0A2
:1060F000E0FF94F93400002180B201F0DAFF013EA4
:106100004FEA5808E8D1DAE7BDE8F883B0F90A3079
:10611000DA1D48BF03F10E02B0F90830C06AD21090
:106120005A43002102F0D0BD2DE9FF411E46C36A4B
:106130009DF8288004460F461546C3B12046FFF758
:10614000E5FFB4F90A00B4F90810202821DC202367
:1061500001222038CDE9013200EBD070732373396E
:10616000009301EBD171894B40F34F0221E0B0F96C
:106170000A30D81D48BF03F10E00B4F90830C01032
:10618000584300F073FDE0620028D7D104B0BDE8A9
:10619000F0814038C0F3C03202FA80F2402301207F
:1061A000CDE90130522352390093794B01EBD17183
:1061B0005210204641F34F01FFF79AF9A06A84F884
:1061C0003170002878D0002D74D1B4F90A30202B1A
:1061D0000CBF3C253D2584F83050B8F1000F01D0AC
:1061E00001F01CFBFEB194F9370000281BDB0121F4
:1061F00080B201F04DFF94F93700012180B201F027
:1062000058FF012001F0A0F894F93700002180B276
:1062100001F04FFF0A2001F097F894F937000121AF
:1062200080B201F046FFA06A002874D0A16C01F092
:10623000F1FA042257492046FFF70BFF6189013923
:10624000C9B22046FFF796FE534904222046FFF7C5
:1062500000FF94F93130012B0CBF1021142120468E
:10626000FFF788FE04224D492046FFF7F2FEA3689F
:106270004B4A93425CD14B4904222046FFF7E9FE8A
:10628000D9212046FFF776FE94F93130012B0CBF5F
:106290002221F1212046FFF76DFE204642490622C9
:1062A000FFF7D7FEA06A002863D0E16C01F0B2FAD4
:1062B00001206BE76DB28EE794F93500012180B2C1
:1062C00001F0E6FE94F93600012180B201F0E0FE13
:1062D00094F93600012180B201F0EBFE656A3DB110
:1062E000B8F1000F3FF47EAF284600F04DFD79E78E
:1062F00094F93300012180B201F0CAFE94F9340010
:10630000012180B201F0C4FE94F93400294680B224
:1063100001F0CFFE66E7606A18B104F1380100F0C1
:1063200061FD94F93600002180B201F0C2FE80E7E1
:106330001E4A93420ED11E4903222046FFF789FED2
:1063400094F93130012B0CBF9F21CF212046FFF75C
:1063500011FE95E7174A934292D11749032220462E
:10636000FFF777FE94F93130012B0CBF1021AF21DC
:10637000ECE794F93600012180B201F09AFE606AE0
:10638000002895D000F014FD92E700BF7C9A0B0026
:10639000BC970B00C49C0B00C89C0B00CC9C0B0052
:1063A00080002000D69C0B00D09C0B008000400099
:1063B000DA9C0B0060001000DD9C0B0070B5002A19
:1063C000BDF810503DDBB0F90A40944239DD002998
:1063D000BEBF5B181BB20021B0F90840CE18A64220
:1063E000C4BF631A1BB2002B2BDDC06AD61014FB8E
:1063F0000611014402F0070001228240012DD2B2B1
:1064000016D0022D0BD0E5B9D243D2B20B4499423B
:1064100017D011F8010B104001F8010CF7E70B44FD
:1064200099420ED011F8010B504001F8010CF7E72A
:106430000B44994205D011F8010B104301F8010CEF
:10644000F7E770BDF0B50029BDF8145076DBB0F960
:106450000860B14272DA002ABEBF9B181BB200224C
:10646000B0F90A40D718A742C4BFA31A1BB2002B29
:1064700064DDC2F3C404C76A16FB041612F00702F7
:10648000DBB207EB060423D0C2F10802D2B22D49D9
:1064900093423CBF4FF0FF0CA2EB030E895C3CBF64
:1064A0004CFA0EFC0CEA0101012D07D0022D2ED072
:1064B0004DB917F806C02CEA010103E017F806C031
:1064C00041EA0C01B955934238D3B0F908100C4495
:1064D0009A1AD2B2072A0ED9022D1DD1134621785D
:1064E000C9432170083BB0F90810DBB2072B0C44FC
:1064F000F5D802F007020AB3134B012D9B5C1AD0AA
:10650000022D1CD0D5B9227822EA030315E017F832
:1065100006C081EA0C01D5E7291E18BF01214942B6
:10652000C9B213462170083BB0F90860DBB2072BF3
:106530003444F7D8DDE7227813432370F0BD227886
:106540005340FAE7B49C0B00BC9C0B0070B414469B
:10655000827EBDF80C60022A0DD0032A18D0012AD1
:1065600011D10289E443144424B203960A46214619
:1065700070BCFFF767BF42890589E443194414449E
:10658000691A24B209B20396224670BCFFF716BFFF
:1065900045891944691A09B2E7E730B41446827E86
:1065A000BDF80850022A0DD0032A18D0012A11D1B3
:1065B000E2180489A41A24B202950A46214630BC86
:1065C000FFF7FCBE0289C9431144E2184489A41AAA
:1065D00009B224B20295224630BCFFF733BF42898C
:1065E000C943114409B2E7E72DE9F8430446806A3C
:1065F000002842D0A16C01F00DF947490522204640
:10660000FFF727FD218901392046C9B2FFF7B2FC07
:10661000B4F90A30DE1D48BF03F10E06D4E90A05BD
:106620002389F61013FB06F615FA86F600283AD0F1
:1066300094F9301001F028F9A06A036840219B68A2
:1066400098470127B542A06A24D01F2F0CD901F02A
:1066500022F994F93010A06A01F016F9A06A0368D3
:1066600040219B6898470127A06A15F8011B036821
:1066700001379B689847FFB2E4E7606A18B104F1FC
:10668000380100F0AFFB94F93600002180B201F030
:1066900010FDB2E701F0FFF8A06A78B3E16CBDE845
:1066A000F84301F0B7B894F93500012180B201F048
:1066B00000FDAE42F0D0606A15F8019B18B1494662
:1066C00000F0FEFBF5E708274FF0800894F933004F
:1066D00009EA080180B201F0ECFC94F934000121D0
:1066E00080B201F0E6FC94F93400002180B201F0A0
:1066F000E0FC013F4FEA5808E8D1DAE794F93600A8
:10670000012180B201F0D5FC606A18B1BDE8F84300
:1067100000F04EBBBDE8F883E09C0B0000F014BE17
:1067200000F080B8704770477047000003065ABFFA
:10673000024B53F820000020704700BFE89C0B007C
:1067400003065ABF024B53F820000020704700BFD9
:10675000E89E0B0008B5024B1B689B68019308BDBF
:106760006802030008B5024B1B68DB68019308BD93
:106770006802030008B5024B1B685B68019308BD03
:106780002C02030008B5024B1B689B68019308BDEF
:106790002C02030008B5024B1B68DB68019308BD9F
:1067A0002C02030008B5024B1B681B69019308BD4E
:1067B0002C02030008B5024B1B685B69019308BDFE
:1067C0002C02030008B5024B1B689B6A019308BDAD
:1067D0002C02030008B5024B1B681B6B019308BD1C
:1067E0002C02030008B5024B1B689B6F019308BD88
:1067F0002C02030008B5024B1B685B69019308BDBE
:106800006C02030008B5024B1B685B68019308BD6E
:106810001802030008B5024B1B68DB68019308BD32
:106820001802030008B5024B1B685B69019308BDA1
:106830001802030008B5024B1B681B6B019308BDCF
:106840004802030008B5024B1B685B6B019308BD4F
:106850004802030008B5024B1B685B6C019308BD3E
:106860004802030008B5024B1B685B69019308BD31
:106870006402030008B5024B1B681B6A019308BD44
:106880006402030008B5024B1B689B6A019308BDB4
:106890006402030008B5024B1B68DB68019308BD66
:1068A0003C02030008B5024B1B681B69019308BD3D
:1068B0003C02030008B5024B1B685B69019308BDED
:1068C0003C02030008B5024B1B689B69019308BD9D
:1068D0003C02030008B5024B1B68DB69019308BD4D
:1068E0003C02030008B5024B1B681B6A019308BDFC
:1068F0003C02030008B5024B1B689B6A019308BD6C
:106900003C02030008B5024B1B681B6C019308BDD9
:106910003C02030008B5024B1B681B68019308BDCD
:106920002802030008B5024B1B68DB68019308BD11
:106930002802030008B5024B1B689B69019308BD40
:106940002802030008B5024B1B68DB69019308BDF0
:106950002802030008B5024B1B681B6A019308BD9F
:106960002802030008B5024B1B685B6A019308BD4F
:106970002802030008B5024B1B689B6A019308BDFF
:106980002802030008B5024B1B68DB6A019308BDAF
:106990002802030008B5024B1B681B6B019308BD5E
:1069A0002802030008B5024B1B685B6B019308BD0E
:1069B0002802030008B5024B1B681B6C019308BD3D
:1069C0002802030008B5024B1B681B6D019308BD2C
:1069D0002802030008B5024B1B689B69019308BDA0
:1069E0003802030008B5024B1B68DB69019308BD40
:1069F0003802030008B5024B1B681B6A019308BDEF
:106A00003802030008B5024B1B689B6A019308BD5E
:106A10003802030008B5024B1B681B6B019308BDCD
:106A20003802030008B5024B1B689B6B019308BD3D
:106A30003802030008B5024B1B681B68019308BDB0
:106A40003002030008B5024B1B685B69019308BD67
:106A50003002030008B5024B1B68DB69019308BDD7
:106A60003002030008B5024B1B681B6A019308BD86
:106A70003002030008B5024B1B685B6A019308BD36
:106A80003002030008B5024B1B68DB6B019308BDA5
:106A90003002030008B5024B1B681B6C019308BD54
:106AA0003002030008B5024B1B685B6C019308BD04
:106AB0003002030008B5024B1B681B68019308BD38
:106AC0004C02030008B5024B1B681B69019308BD0B
:106AD0004C02030008B5024B1B685B69019308BDBB
:106AE0004C02030008B5024B1B689B69019308BD6B
:106AF0004C02030008B5024B1B68DB69019308BD1B
:106B00004C02030008B5024B1B681B6A019308BDC9
:106B10004C02030008B5024B1B685B6B019308BD78
:106B20006002030008B5024B1B681B6D019308BD92
:106B30006002030008B5024B1B685B68019308BD47
:106B40002002030008B5024B1B685B69019308BD76
:106B50002002030008B5024B1B68DB6A019308BDE5
:106B60002002030008B5034B1B68D3F8883001935B
:106B700008BD00002002030008B5034B1B68D3F8D2
:106B80009430019308BD00002002030008B5024BB9
:106B90001B685B68019308BD4002030008B5024B07
:106BA0001B689B68019308BD4002030008B5024BB7
:106BB0001B68DB68019308BD4002030008B5024B67
:106BC0001B681B69019308BD4002030008B5024B16
:106BD0001B685B69019308BD4002030008B5024BC6
:106BE0001B689B69019308BD4002030008B5024B76
:106BF0001B68DB69019308BD4002030008B5024B26
:106C00001B681B6A019308BD4002030008B5024BD4
:106C10001B681B6B019308BD4002030008B5024BC3
:106C20001B685B6B019308BD4002030008B5024B73
:106C30001B681B6C019308BD4002030008B5024BA2
:106C40001B685B6C019308BD4002030008B5024B52
:106C50001B689B68019308BD4402030008B5024B02
:106C60001B68DB6B019308BD4402030008B5024BAF
:106C70001B681B68019308BD1C02030008B5024B8A
:106C80001B685B68019308BD1C02030008B5024B3A
:106C90001B689B68019308BD1C02030008B5024BEA
:106CA0001B68DB69019308BD1C02030008B5024B99
:106CB0001B685B6A019308BD1C02030008B5024B08
:106CC0001B68DB6B019308BD1C02030008B5024B77
:106CD0001B681B6C019308BD1C02030008B5024B26
:106CE0001B685B6C019308BD1C0203000022406816
:106CF0001146FFF783BF002240681146FFF78EBFA1
:106D000040680022FFF782BF4068002281F0010145
:106D1000FFF76CBF002340681A461946FFF75EBFB5
:106D2000002340681A461946FFF750BF002240680A
:106D30001146FFF743BF002240681146FFF72EBF00
:106D4000406800220221FFF731BF002340681A4645
:106D5000FFF71CBF024B03225A60024A1A607047B9
:106D6000C4E60320F0A00B000021FFF79BBE00212A
:106D7000FFF790BE10B5044608462170FFF76AFE83
:106D800000236360204610BD13B504460078FFF76A
:106D9000EEFF58B9207801904FF6FF71FFF74AFED9
:106DA000019802B0BDE81040FFF7DEBF02B010BD91
:106DB0000078FFF7D9BF0000400830B51860002404
:106DC00018688842E5B206D90134082C02D0400880
:106DD0001860F5E70725024B5B5D137030BD00BFFF
:106DE00024A10B002DE9F04306468FB000780C4635
:106DF000FFF7BDFF00281BDB35781422002109A80E
:106E000001F062FF0B23002209A92846ADF82430C7
:106E1000FFF730FE9DF82D3013B19DF82C5055B181
:106E20000027B946B846012523795DB1C3B10020DA
:106E30000FB0BDE8F083DDF830809DF834909DF808
:106E40003570F1E7002B35D1A368434508D18DF8A3
:106E500020908DF82170BDF82020A3899A42E6D0B9
:106E60000023A1688DF80F300A9804AB0DF10F02D2
:106E7000FFF7A2FF217985B989B9A36843450ED3ED
:106E80008DF820908DF82170BDF82020A3899A42BA
:106E900005D1049B434502D1C9E70029F9D100235C
:106EA0000193637B00939DF80F20237B3078FFF7DD
:106EB000E9FDBCE7CDE900552B462A460121F5E75F
:106EC00008B50078FFF7BEFDC0B208BD054B022231
:106ED0001A60054B054A9A600020C3E90000FFF7DD
:106EE00029BE00BFD8E60320CCE603200000FFFF48
:106EF00010B5044601F030FF0138231820468342C4
:106F000006D90278197800F8011B03F80129F6E781
:106F100010BD70B50C46911E22291DD8254630B9EA
:106F2000234430229D4210D205F8012BFAE7B0FB32
:106F3000F2F602FB1600C1B2092894BF3031573176
:106F4000C9B205F8011B3046E9E7002320462B7043
:106F5000FFF7CEFF204670BD0020FCE738B5031ECA
:106F60000C4615460EDAB3F1004F4FF02D0214BF58
:106F70005842184601230A702A461944FFF7C9FFF0
:106F8000204638BD0123F9E710B504460068FFF735
:106F900075FE204610BD10B50446006808B1FFF725
:106FA0006DFE0023C4E90133236010BD38B50446EB
:106FB0000D4600680131FFF769FE10B1C4E9000514
:106FC000012038BD10B50368044623B143688B42E5
:106FD00001D3012010BD2046FFF7E8FF0028F9D0BB
:106FE000A368002BF5D122681370F2E737B50D4680
:106FF000114601920446FFF7E5FF019A28B92046A1
:10700000FFF7C9FF204603B030BDA26029462068C3
:1070100001F04CFE2268A3680021D154F2E700235E
:1070200013B5C0E9003304468360037341B10846D9
:10703000019101F091FE019902462046FFF7D6FF2B
:10704000204602B010BD884210B5044605D00B683A
:107050002BB18A681946FFF7C9FF204610BDFFF71C
:107060009AFFFAE710B500230446C0E900338360B5
:107070000373FFF7E8FF204610BD13B5044659B16E
:107080000846019101F068FE019902462046FFF78B
:10709000ADFF204602B010BDFFF77DFFF9E710B548
:1070A00004468AB00023C4E90033A3602373084672
:1070B00001A9FFF753FF01A92046FFF7DEFF204695
:1070C0000AB010BD70B505460E4609B9002070BD66
:1070D0006AB1846814442146FFF774FF0028F5D094
:1070E0002868AB683146184401F02EFEAC600120E0
:1070F000EDE710B58A6809680446FFF7E3FF10B9A9
:107100002046FFF748FF204610BD13B5044629B9B5
:107110002046FFF740FF204602B010BD084601910F
:1071200001F01AFE019902462046FFF7CBFF002826
:10713000EED0F0E708B582683AB921B10878B0FA24
:1071400080F0400900E0012008BD006809B900781E
:10715000F5E701F0EFFDF2E710B54368013B0446A7
:10716000436063B903689B689847A368013BA360C9
:107170002BB923682046DB68BDE81040184710BDD6
:10718000024800230360FFF765BB00BFDCE6032075
:10719000F8B506460D468F180024BD420CD0336862
:1071A00015F8011B9B6830469847031E01DB1C4401
:1071B000F3E7002C08BF1C462046F8BD13B5044673
:1071C000084659B1019101F0C7FD23680199DB68B8
:1071D0000246204602B0BDE81040184702B010BD7C
:1071E00008B5FFF7EBFF08BD03689B68184738B583
:1071F0000D210546FFF7F8FF0A2104462846FFF750
:10720000F3FF204438BD38B50546FFF7D7FF0446E5
:107210002846FFF7ECFF204438BD30B58BB0002383
:10722000012A8DF8243098BF0A2209AC0D46B1FB23
:10723000F2F101FB125303F0FF03092B94BF30332B
:107240003733DBB2AA4204F8013DEFD92146FFF7FC
:10725000B5FF0BB030BD2DE9F04186B000AF05465B
:107260000E46381D142114463B60FFF71FFD1328FE
:107270000ED8391D2846FFF7A1FF04461EB1284647
:10728000FFF7B5FF044420461837BD46BDE8F0813E
:1072900000F1080323F00703E846ADEB030D224697
:1072A000411C3B686846FFF701FD69462846FFF729
:1072B00085FF0446C546E1E710B50446FFF7B2FA7C
:1072C000E060236820465B699847002808DAFFF7EA
:1072D000A9FAE368C01AA3689842F2D34FF0FF30CE
:1072E00010BD2DE9F04107460C468E180D46B542FB
:1072F000A5EB040807D03846FFF7DEFF031E02DBCC
:1073000005F8013BF3E74046BDE8F081014B024A36
:107310001A607047E0E6032034A10B00024B1A68A4
:10732000024B1A60704700BF24E50320E4E6032007
:107330008A4210B507D0441A0298C01A4443501A22
:1073400094FBF0F0184410BD0021FFF7FBBB0000D8
:1073500010B5044B03600446806908B1FFF7FCFEDA
:10736000204610BD2CA20B0010B50446FFF7F0FF1D
:1073700020461C21FCF793FE204610BD014B002245
:107380009A607047E8E60320014B1860704700BF21
:1073900028E5032008B50B4B43B100F085F90368DD
:1073A0001B699847002801DDAFF30080064B43B10D
:1073B00000F004FF03681B699847002801DDAFF364
:1073C000008008BD000000000000000008B5FFF7C5
:1073D000E1FFFFF727FA014B186008BD40E70320E3
:1073E0000548064A064908B5121A01F05FFC054B2C
:1073F000054A1A6008BD00BF00F4032004F403200E
:10740000C4A50B0000F403201E1C279A07B5002317
:1074100000931A466FF07701FFF7AEFB03B05DF8FB
:1074200004FB000007B543880A2B08D0502B0BD172
:10743000094B1B684BB103B05DF804EB1847FFF72D
:10744000E5FF03B05DF804FB002300931A466FF0DC
:107450007701FFF791FBF4E7FCE6032010B5124833
:107460000021FFF73BFC114B1A68114B9A42114B5C
:107470000CBF012200221A7001D0FFF7B1FFFFF705
:10748000C1F9044601F028FC0B4B13B12046AFF3C1
:10749000008000210848FFF7E1FBBDE810400748E5
:1074A0000021FFF75FBB00BF89730B0000F40320CE
:1074B0001E1C279AF8E603200000000025740B002C
:1074C000704710B518210446FCF7E9FD204610BDB1
:1074D000F0B5037D062B8DB00E4600F104074FF08A
:1074E000000412D000F1080515F8011D0A223046EB
:1074F000FFF793FEAF42044419D0002CF4D02E21A4
:107500003046FFF771FE0444EEE72F236A46394602
:107510000A208DF80040FFF7A5F9684601F01CFC31
:1075200033680246DB686946304698470446204681
:107530000DB0F0BD10B5054B0446112240F8043BD8
:10754000002101F0C1FB204610BD00BF5CA10B0073
:107550000346074A10B543F8042B01F1100251F815
:10756000044B43F8044B9142F9D10A781A7010BDCC
:107570005CA10B00037D042B04D14068003818BFC8
:1075800001207047062B07D143683BB983682BB9AC
:10759000C3681BB90069F1E70020704701207047FC
:1075A00010B59DF8084044EA032343EA024242EA48
:1075B000016104234160037510BD000013B5044C44
:1075C00004609DF810400094FFF7EAFF02B010BD80
:1075D0005CA10B0007B5064B0360CB7800938B785A
:1075E0004A780978FFF7DCFF03B05DF804FB00BFC1
:1075F0005CA10B00417470477047704708B50021CB
:10760000007CFFF76FFA40EAE07008BD08B5012181
:10761000007CFFF767FA40EAE07008BD08B5007C1F
:10762000FFF758FA20EAE07008BD08B5007CFFF7C4
:1076300049FA20EAE07008BD13B50446007C0191C8
:10764000FFF748FA0028019901DC607C20B1207C1A
:10765000FFF750FA20EAE07002B010BD007CFFF79F
:1076600051BA10B514210446FCF719FD204610BD8F
:1076700010B54FF47A73044608460021C4E901139B
:10768000044B23600123207463741146FFF712FA40
:10769000204610BD70A10B0010B514220446002135
:1076A00001F012FB204610BD10B50F4C88B003A8A6
:1076B000FFF7F2FF2178BFF35B8F11F001010FD1CB
:1076C00020460191FCF7FAFC019948B103AA07484A
:1076D000FFF7CEFF2046FCF7F6FC054801F0D8FA8C
:1076E000024808B010BD00BF00E7032004E70320F4
:1076F000F9750B0070474174704708B5007CFFF7BF
:10770000F9F820EAE07008BD08B5007CFFF7CAF878
:1077100020EAE07008BD08B5007CFFF7D3F840EA26
:10772000E07008BD08B5007CFFF7C4F840EAE070DF
:1077300008BD007CFFF7CEB837B5457C04462DB1B7
:10774000207C03B0BDE83040FFF7A4B8007C019175
:10775000FFF7D0F800280199F2DC284603B030BDCD
:1077600010B514210446FCF79AFC204610BD000019
:1077700010B54FF47A730446084611460022C4E956
:107780000123044B2360012320746374FFF7BAF8CC
:10779000204610BDA0A10B007047F8B5064615465F
:1077A0000C468F18BC4206D0336814F8011B9B6846
:1077B00030469847F6E72846F8BD007C0022FFF7E0
:1077C000C9B8007C0021FFF7CDB8007C0021FFF78D
:1077D000D1B8007C0021FFF7D5B8007C0021FFF76D
:1077E000D9B810B514210446FCF759FC204610BD49
:1077F00010B54FF47A73044608460021C4E901131A
:10780000034B236020741146FFF7D4F8204610BDC7
:10781000D0A10B00007C0022FFF77CB80023007C85
:107820001A461946FFF77EB87FB500221423CDE92A
:107830000122ADF804300B788DF808304B680393C3
:10784000CB680493007C0B7A059301A9FFF7BAF883
:1078500007B05DF804FB1FB5003B8DF800104FF03A
:107860006401039118BF0123694601928DF8083025
:10787000FFF7DAFF05B05DF804FB0123FFF7EBBF6C
:10788000007C0022FFF756B8C9B2FFF7F9BF007CB1
:107890000022FFF757B80121FFF7F9BF13B50368BE
:1078A0008DF80710DC6B01224FF0FF330DF107015B
:1078B000A04702B010BD10B40368DC6B4FF0FF337B
:1078C000A4465DF8044B604713B5134602688DF873
:1078D0000710D46B0DF107010122A04702B010BDC3
:1078E00010B54369B3F88620B3F884309A42044651
:1078F00008D06369B3F88420511CA3F884101344A2
:10790000187910BD03681B6998470028F1D14FF022
:10791000FF30F6E7704743691868C043C00F7047EF
:1079200070470000064B994210B500F10C0405D0D9
:10793000084600F0A5FC002808BF0024204610BD22
:107940002CA10B0010B5AC210446FCF7A8FB204687
:1079500010BDAC21FCF7A3BB2DE9F0414FF00008AE
:1079600086B01C46C0F8048005460E4617464146C0
:10797000102202A801F0A8F9631C09D04FF47A7311
:10798000B4FBF3F203FB1244CDE902285C430494F8
:10799000686910230093006802AB41F2050240F6CB
:1079A000FF71FFF717F8002807DAFFF787F9036878
:1079B0006B60002006B0BDE8F081686900230068B4
:1079C0003A463146FFF726F8031EEEDB1846F1E78C
:1079D00030B587B0044601AD6846FFF7FBFD0FCD1B
:1079E00004340FC42B68237007B030BD70B54D69E7
:1079F000054B04468C3544F8043B06460FCD0FC4B6
:107A00002B682370304670BD5CA10B002DE9F0435C
:107A10009846036893B00D460024DB6A0646174675
:107A2000984728466B46224621460094FEF79AFE68
:107A30000546002863D1009B002B4BD05B69002BCF
:107A400048D006A8FFF776FD009B5C696378022B9F
:107A500004D1211D06A8FFF7BBFF26E00A2B24D185
:107A60001122294601A801F02FF9A368002B38D074
:107A700004F108030DF1040C1834186859686246C3
:107A800003C20833A3429446F7D1062301A90CA8E8
:107A90008DF81430FFF75CFD0DF1340CBCE80F00DD
:107AA00007AC0FC4DCF80030237006A8FFF762FDB6
:107AB00080B1336807ADD3F82090124B0C930FCDF3
:107AC0000DAC0FC42B6823703A4643460CA93046D0
:107AD000C84705460098FEF73DFE284613B0BDE8AE
:107AE000F083E368002BC3D14FF6FF70D4F81090F9
:107AF000FEF7C0FE8145BBD104F11401AAE725467B
:107B0000E8E700BF5CA10B0038B543691A68002A9A
:107B1000054610DAB3F88620B3F884309A420AD1C9
:107B200003681B699847044628B92B682846DB6A16
:107B30009847204638BD0120FCE710B54369B3F8EB
:107B40008620B3F884309A42044605D06369B3F8BE
:107B500084201344187910BD03681B6998470028D6
:107B6000F4D14FF0FF30F6E7F8B543691746B3F8A4
:107B70008620B3F884309A4205460E4616D06969CD
:107B8000B1F88430B1F88640E41ABC4228BF3C46C4
:107B9000043322461944304601F088F86A69B2F885
:107BA00084302344A2F884302046F8BD03681B6962
:107BB00098470028E3D14FF0FF34F5E742690023EE
:107BC000A2F884304269A2F8863070472DE9F0416E
:107BD0001F4603680C46DB6A8AB00546164698477E
:107BE000237DD5F81480042B0CBF02200A20062226
:107BF0000121FEF717FFC8F800006B691B68002B16
:107C000008DA2B682846DB6A0024984720460AB029
:107C1000BDE8F0812846FFF7D1FFB7B1002303A9E3
:107C2000F8B20393ADF81030FEF7E4FD0028E8D178
:107C3000686906230093006803AB41F20B0240F62B
:107C4000FF71FEF7C7FE0028DBD11C22002103A82C
:107C500001F03AF8237D042B1DD14FF40773304611
:107C6000ADF80C30FEF70EFEADF80E006068FEF7C2
:107C700001FE04906B691C22186803A9FEF7BAFE86
:107C80000028BED104340FCC6D698C350FC5236834
:107C90002B700124BAE740F61C233046ADF80C30B7
:107CA000FEF7F0FD05AEADF80E00231D04F114073C
:107CB00018685968324603C20833BB421646F7D1EA
:107CC000D8E7000030B54269B2F886308BB0044680
:107CD0002BB1B2F884209A4201D1FFF76FFF61699E
:107CE0000868002818DBB1F886507F2D14D80431BD
:107CF0000823C5F180022944FEF784FE002813DD25
:107D00006369B3F886200AB9A3F884206369B3F8DD
:107D100086201044A3F886006369B3F88600B3F8A0
:107D20008430C01A0BB030BDFEF7C8FF03680B2BC0
:107D3000F2D0FEF7C3FF03680B2BEDD02023002504
:107D4000CDE90235FEF7BAFF03680193084B0949F4
:107D5000009302AA2B463220FEF7E4FE63691868FE
:107D6000FEF740FE63694FF0FF321A60D4E700BFB0
:107D7000F7A10B00F0A10B0010B543690446186889
:107D8000002801DBFEF72EFE63694FF0FF321A6018
:107D90006069112200218C3000F096FF2046BDE87A
:107DA0001040FFF70BBF10B5002304460160C0F878
:107DB00084308830FFF7BEFB204610BD73B500232A
:107DC0004FF47A72C0E901320E4A036102604361E6
:107DD0000446AC200191FCF75EF9051E05F10C0686
:107DE00008D00123C5E90133074B01992B603046C8
:107DF000FFF7D9FF2046C4E90565FFF7DFFE02B0B3
:107E000070BD00BF2CA20B0010A20B0010B54FF0EC
:107E1000FF310446FFF7D2FF204610BD10B50446DF
:107E20000068002801DBFEF7DDFD204610BD0C30A8
:107E3000FFF7F4BF002240681146FEF7BFBE0022E4
:107E400040681146FEF7DABE002240681146FEF790
:107E5000E5BE40680022FEF7D9BE4068002281F0EE
:107E60000101FEF7C3BE002340681A461946FEF71B
:107E7000B5BE002340681A461946FEF7A7BE002289
:107E800040681146FEF78ABE406800220221FEF7D4
:107E90008DBE002340681A46FEF778BE024B0422CE
:107EA0005A60024A1A60704718E7032078A20B0054
:107EB000002340681A46FEF769BE4068002202218E
:107EC000FEF774BE002240681146FEF767BE00222E
:107ED00040681146FEF772BE002340681A461946F4
:107EE000FEF774BE002340681A461946FEF776BEB8
:107EF00040680021FEF79ABE40680021FEF79EBE52
:107F00004068002281F00101FEF770BE4068002247
:107F1000FEF77CBE002240681146FEF77FBE0022BD
:107F200040681146FEF76ABE2DE9F04395B014464D
:107F30000D460746FFF7FEFA00211C220DA800910E
:107F400000F0C2FE40230C9320466B460CAA002191
:107F5000FEF708FC044600284BD102460121686860
:107F6000FEF72CFE0221804622466868FEF726FEB8
:107F7000009E81462146002E3BD0002939D17368EE
:107F8000022B03D00A2B11D0F669F4E7B8F1000FE9
:107F9000FAD0716906A8043107ADFFF71BFB0FCDBE
:107FA0003C1D0FC42B6823704146EDE7B9F1000F6B
:107FB000EAD07469102201A800F086FE06238DF82D
:107FC000143001AD04F108031834186859682A46C2
:107FD00003C20833A3421546F7D101A906A807AD8D
:107FE000FFF7B6FA0FCD3C1D0FC42B68237049462E
:107FF000CAE70098FEF7AEFB384615B0BDE8F0833F
:10800000024B034A1A6000225A60704720E703209F
:10801000B4A20B00232813B502D9002002B010BD72
:10802000A0F10B03022B1AD8174C2178BFF35B8FFA
:1080300011F001010BD120460191FCF73FF80199A5
:1080400028B11248FEF796FE2046FCF73CF80F4B8D
:108050001878FEF707FD0028DFD10120DEE70128B0
:1080600009D800F0E7F80021007CFEF79BFC80F0C7
:108070000100C0B2D2E709380128EED800F09EF81E
:10808000007CFEF72FFCF2E7B8E60320BCE60320F5
:10809000232838B504460D460AD8FF2908D0FFF733
:1080A000B9FF28B129462046BDE83840FEF76ABB33
:1080B00038BD38B504460D46FEF76CFBFF2810D0DE
:1080C000062804D84D2323FA00F0C30709D420461C
:1080D000FFF7A0FF28B129462046BDE83840FEF74B
:1080E00061BB38BD10B50446FEF754FB031FDBB27D
:1080F000012B08D92046FFF78DFF20B12046BDE8AF
:108100001040FEF757BB002010BD0D2810B50446E7
:108110009CBF0E34A4B22046FFF77CFF50B1032170
:108120002046FEF727FB032804D12046BDE8104077
:10813000FEF750BB002010BD38B504460D46FFF7D2
:1081400069FFF0B104212046FEF714FB042805D195
:10815000A9B22046BDE83840FEF734BB02212046D4
:10816000FEF708FB02280CD12046FEF713FB01287E
:1081700001D0042805D129462046BDE83840FEF745
:1081800031BB38BD7047000038B5044614252A4677
:10819000002100F099FD25804025074925812846CA
:1081A000258200F06BF804496060284600F066F80C
:1081B000E060204638BD00BFE8A20B0030B50E4D90
:1081C0002978BFF35B8F11F0010487B011D12846E5
:1081D000FBF774FF68B101A8FFF7D6FF01AA21469B
:1081E0000648FFF7C5FA2846FBF76DFF044800F084
:1081F0004FFD024807B030BD28E703202CE70320DD
:1082000085810B007047000038B5202514230446F3
:108210000360856005610649284600F02FF804498F
:108220006060284600F02AF8E060204638BD00BFB4
:10823000E8A20B0030B50E4D2978BFF35B8F11F02B
:10824000010487B011D12846FBF738FF68B101A8B7
:10825000FFF7DAFF01AA21460648FFF7C9FA2846C8
:10826000FBF731FF044800F013FD024807B030BDB2
:1082700044E7032048E7032005820B00FBF70DBF0E
:10828000014900F0F9B800BF04A30B007FB500243A
:108290001023CDE90234036815469E6912686B46C7
:1082A000CDE90044B0479DF8043003F00603062BE7
:1082B00003BF009B2B600120204604B070BD0098D6
:1082C000904214BF012006207047000010B5034BF8
:1082D0000360044600F0CDF8204610BD44A30B0017
:1082E00010B50446FFF7F2FF20460821FBF7D7FE42
:1082F000204610BD2DE9F0411F46DDE90834DDF8C8
:10830000188098450646154607D1079900F0B4F83D
:1083100018B165710020BDE8F0813946304600F0A3
:10832000ABF80028F6D00123C4F800802571A371B2
:10833000F0E738B515461C4600F09EF820B108233A
:10834000E36006232560237138BD73B505460C46EE
:1083500001921E4600F090F850B9032E08D8236809
:10836000019A5B692946204602B0BDE87040184773
:1083700002B070BD10B5034B03600446FFF7A6FFC3
:10838000204610BDA4A30B0010B50446FFF7F2FF72
:1083900020460C21FBF783FE204610BDF7B5089F51
:1083A000974205460E4614460AD0A8680268089708
:1083B000156A31462246AC4603B0BDE8F04060473E
:1083C0001946019300F058F8019B0028EDD00620D3
:1083D00003B0F0BD2DE9F14F0D461946DDE90A4B1A
:1083E000DDE90CA681461746984600F045F890B1A5
:1083F000002D3460377109DB61198A450CBF0621F5
:108400000121B171002001B0BDE8F08F0235F9D132
:108410000123B371F6E7544506D15946484600F0AA
:108420002BF808B17771EDE7D9F808000368CDE9BA
:108430000CA6CDE90A4BDC693A4643462946A446D8
:1084400001B0BDE8F04F60472DE9F04107460C460A
:1084500015461E46FFF76DFF48B9B86803689F6967
:108460002A4633462146BC46BDE8F0416047BDE898
:10847000F081704700207047814208B50ED04068F7
:1084800003782A2B0CD049680B782A2B08BF0131BE
:1084900000F050FCB0FA80F0400908BD0120FCE774
:1084A0000020FAE781F0004102E000BF83F00043C2
:1084B00030B54FEA41044FEA430594EA050F08BF7F
:1084C00090EA020F1FBF54EA000C55EA020C7FEA43
:1084D000645C7FEA655C00F0E2804FEA5454D4EBC0
:1084E0005555B8BF6D420CDD2C4480EA020281EA8A
:1084F000030382EA000083EA010180EA020281EAC2
:108500000303362D88BF30BD11F0004F4FEA013113
:108510004FF4801C4CEA113102D0404261EB410122
:1085200013F0004F4FEA03334CEA133302D05242A8
:1085300063EB430394EA050F00F0A780A4F1010464
:10854000D5F1200E0DDB02FA0EFC22FA05F280189E
:1085500041F1000103FA0EF2801843FA05F3594184
:108560000EE0A5F120050EF1200E012A03FA0EFC03
:1085700028BF4CF0020C43FA05F3C01851EBE3712D
:1085800001F0004507D54FF0000EDCF1000C7EEB4A
:1085900000006EEB0101B1F5801F1BD3B1F5001F88
:1085A0000CD349085FEA30004FEA3C0C04F10104A7
:1085B0004FEA445212F5800F80F09A80BCF1004FD0
:1085C00008BF5FEA500C50F1000041EB045141EA52
:1085D000050130BD5FEA4C0C404141EB0101013C1B
:1085E00028BFB1F5801FE9D291F0000F04BF01460A
:1085F0000020B1FA81F308BF2033A3F10B03B3F1DC
:1086000020020CDA0C3208DD02F1140CC2F10C026B
:1086100001FA0CF021FA02F10CE002F11402D8BFC9
:10862000C2F1200C01FA02F120FA0CFCDCBF41EA95
:108630000C019040E41AA2BF01EB0451294330BD64
:108640006FEA04041F3C1CDA0C340EDC04F1140441
:10865000C4F1200220FA04F001FA02F340EA030018
:1086600021FA04F345EA030130BDC4F10C04C4F15E
:10867000200220FA02F001FA04F340EA030029463E
:1086800030BD21FA04F0294630BD94F0000F83F488
:10869000801306BF81F480110134013D4EE77FEA6B
:1086A000645C18BF7FEA655C29D094EA050F08BFB7
:1086B00090EA020F05D054EA000C04BF1946104698
:1086C00030BD91EA030F1EBF0021002030BD5FEADC
:1086D000545C05D14000494128BF41F0004130BD04
:1086E00014F580043CBF01F5801130BD01F0004558
:1086F00045F0FE4141F470014FF0000030BD7FEACB
:10870000645C1ABF194610467FEA655C1CBF0B46C5
:10871000024650EA013406BF52EA033591EA030FDC
:1087200041F4002130BD00BF90F0000F04BF0021D4
:10873000704730B54FF4806404F132044FF0000507
:108740004FF0000150E700BF90F0000F04BF002180
:10875000704730B54FF4806404F1320410F00045E6
:1087600048BF40424FF000013EE700BF42004FEAE1
:10877000E2014FEA31014FEA02701FBF12F07F435E
:1087800093F07F4F81F06051704732F07F4208BF15
:10879000704793F07F4F04BF41F40021704730B51C
:1087A0004FF4607401F0004521F000411CE700BF68
:1087B00050EA010208BF704730B54FF000050AE0EB
:1087C00050EA010208BF704730B511F0004502D5EC
:1087D000404261EB41014FF4806404F132045FEAEE
:1087E000915C3FF4D8AE4FF003025FEADC0C18BF97
:1087F00003325FEADC0C18BF033202EBDC02C2F189
:10880000200300FA03FC20FA02F001FA03FE40EA1A
:108810000E0021FA02F11444BDE600BF70B54FF01E
:10882000FF0C4CF4E06C1CEA11541DBF1CEA1355FC
:1088300094EA0C0F95EA0C0F00F0DEF82C4481EA64
:10884000030621EA4C5123EA4C5350EA013518BF84
:1088500052EA033541F4801143F4801338D0A0FB71
:1088600002CE4FF00005E1FB02E506F00042E0FB1E
:1088700003E54FF00006E1FB03569CF0000F18BF24
:108880004EF0010EA4F1FF04B6F5007F64F54074CC
:1088900004D25FEA4E0E6D4146EB060642EAC6215F
:1088A00041EA55514FEAC52040EA5E504FEACE2ECC
:1088B000B4F1FD0C88BFBCF5E06F1ED8BEF1004FCF
:1088C00008BF5FEA500E50F1000041EB045170BD4B
:1088D00006F0004646EA010140EA020081EA03018F
:1088E000B4EB5C04C2BFD4EB0C0541EA045170BD8B
:1088F00041F480114FF0000E013C00F3AB8014F105
:10890000360FDEBF002001F0004170BDC4F100044D
:10891000203C35DA0C341BDC04F11404C4F12005CE
:1089200000FA05F320FA04F001FA05F240EA020029
:1089300001F0004221F0004110EBD37021FA04F65F
:1089400042EB06015EEA430E08BF20EAD37070BD19
:10895000C4F10C04C4F1200500FA04F320FA05F078
:1089600001FA04F240EA020001F0004110EBD3707A
:1089700041F100015EEA430E08BF20EAD37070BDEA
:10898000C4F1200500FA05F24EEA020E20FA04F3C3
:1089900001FA05F243EA020321FA04F001F0004172
:1089A00021FA04F220EA020000EBD3705EEA430EE3
:1089B00008BF20EAD37070BD94F0000F0FD101F012
:1089C0000046400041EB010111F4801F08BF013C4B
:1089D000F7D041EA060195F0000F18BF704703F089
:1089E0000046520043EB030313F4801F08BF013D10
:1089F000F7D043EA0603704794EA0C0F0CEA1355CC
:108A000018BF95EA0C0F0CD050EA410618BF52EA85
:108A10004306D1D181EA030101F000414FF000008B
:108A200070BD50EA410606BF1046194652EA430699
:108A300019D094EA0C0F02D150EA013613D195EA0D
:108A40000C0F05D152EA03361CBF104619460AD155
:108A500081EA030101F0004141F0FE4141F470015F
:108A60004FF0000070BD41F0FE4141F4780170BD4F
:108A700070B54FF0FF0C4CF4E06C1CEA11541DBFB4
:108A80001CEA135594EA0C0F95EA0C0F00F0A7F8B6
:108A9000A4EB050481EA030E52EA03354FEA0131E3
:108AA00000F088804FEA03334FF0805545EA1313F6
:108AB00043EA12634FEA022245EA111545EA1065BE
:108AC0004FEA00260EF000419D4208BF964244F155
:108AD000FD0404F5407402D25B084FEA3202B61A74
:108AE00065EB03055B084FEA32024FF480104FF448
:108AF000002CB6EB020E75EB030E22BFB61A7546BC
:108B000040EA0C005B084FEA3202B6EB020E75EB4E
:108B1000030E22BFB61A754640EA5C005B084FEAB6
:108B20003202B6EB020E75EB030E22BFB61A754683
:108B300040EA9C005B084FEA3202B6EB020E75EB8E
:108B4000030E22BFB61A754640EADC0055EA060E4F
:108B500018D04FEA051545EA16754FEA06164FEA92
:108B6000C30343EA52734FEAC2025FEA1C1CC0D13E
:108B700011F4801F0BD141EA00014FF000004FF0CB
:108B8000004CB6E711F4801F04BF01430020B4F18C
:108B9000FD0C88BFBCF5E06F3FF6AFAEB5EB030C44
:108BA00004BFB6EB020C5FEA500C50F1000041EB41
:108BB000045170BD0EF0004E4EEA113114EB5C040E
:108BC000C2BFD4EB0C0541EA045170BD41F48011E1
:108BD0004FF0000E013C90E645EA060E8DE60CEAE9
:108BE000135594EA0C0F08BF95EA0C0F3FF43BAF06
:108BF00094EA0C0F0AD150EA01347FF434AF95EABD
:108C00000C0F7FF425AF104619462CE795EA0C0FA0
:108C100006D152EA03353FF4FDAE1046194622E76D
:108C200050EA410618BF52EA43067FF4C5AE50EA47
:108C300041047FF40DAF52EA43057FF4EBAE12E737
:108C40004FEA410212F5001215D211D56FF4787374
:108C5000B3EB625212D94FEAC12343F0004343EA17
:108C6000505311F0004F23FA02F018BF40427047F2
:108C70004FF00000704750EA013005D111F000407C
:108C800008BF6FF0004070474FF00000704700BF12
:108C9000002301461A46184600F006B90A220021B0
:108CA00000F0F8B80A22002100F0F4B80A4491421A
:108CB00000F1FF3300D1704710B511F8014B03F8F4
:108CC000014F9142F9D110BD02440346934200D1B5
:108CD000704703F8011BF9E738B5104B1D68AB6B03
:108CE0000446B3B91820FDF7C1FF0246A86320B9B6
:108CF0000B4B0C484221FDF7E9FF0B490B4BC0E938
:108D000000130B4B83600B23838100210120C2E9F8
:108D10000401AB6B00221C615A6138BD28E50320B9
:108D2000DDA30B00F4A30B000E33CDAB34126DE6C4
:108D3000ECDE050010F8012B11F8013B012A28BFD9
:108D40009A42F7D0D01A7047034611F8012B03F866
:108D5000012B002AF9D17047034613F8012B002A92
:108D6000FBD1181A0138704710B50139034632B1EA
:108D700011F8014F03F8014B013A002CF7D11A44C6
:108D80000021934200D110BD03F8011BF9E7000058
:108D9000012B2DE9F04701D0242B06D9FDF78EFFDA
:108DA000162303600020BDE8F087DFF8E4C00D461D
:108DB0002E4615F8014B14F80C7017F00807F7D180
:108DC0002D2C32D12C780127B51C002B5BD0102B19
:108DD00009D1302C07D12C7804F0DF04582C4DD168
:108DE0006C781023023507F1004808F1FF384FF086
:108DF000000CB8FBF3F9664603FB198AA4F1300EA8
:108E0000BEF1090F16D87446A34224DDBCF1000F51
:108E10001EDBB1451CD301D1A24519DB06FB03467D
:108E20004FF0010C15F8014BE8E72B2C04BF2C7810
:108E3000B51CCAE7A4F1410EBEF1190F01D8373CA9
:108E4000E2E7A4F1610EBEF1190F04D8573CDBE74D
:108E50004FF0FF3CE6E7BCF1000F05DA2223036088
:108E6000464642B930469EE707B17642002AF9D01D
:108E7000BCF1000F00D0691E1160F3E73024002B15
:108E8000B1D10823AFE7302CA5D00A23ABE700BF50
:108E900072A40B0013460A46014602480068FFF719
:108EA00077BF00BF28E503202DE9F843DFF8B8803D
:108EB0000646D8F800001F460D46914600F056F8C9
:108EC000254B1C6834B9254C1C60254B13B11B681D
:108ED000C4F8883063681F2B07DDD8F8000000F065
:108EE00047F84FF0FF30BDE8F8834EB3D4F8880060
:108EF00088B91C4B23B9D8F8000000F038F8F0E727
:108F00004FF48470FDF7B2FE0028F4D00023C0E9CE
:108F10004033C4F88800636840F8239001229A40E7
:108F200000EB8301D0F800311343C0F80031022E6A
:108F3000C1F8807002BFD0F804311343C0F8043187
:108F40006368D8F800005A1C0233626044F823506A
:108F500000F00EF80020C6E7E8E703205CE70320F6
:108F6000000000006D6C0B008CE50320704770471B
:108F70007047000021400B005D400B0085400B0056
:108F800089400B000000000043616C6C206F6E2074
:108F900070757265207669727475616C0025690060
:108FA000256C6900416D6269656E74204C69676863
:108FB00074204C6576656C3A0054656D706572611D
:108FC000747572653A002043656C736975732C0083
:108FD0002046616872656E686569742E0053657419
:108FE00020796F757220706F696E74732E00506FE8
:108FF00074656E74696F6D657465723A00506F695F
:109000006E74204F6E653A00506F696E742054770D
:109010006F3A005468616E6B20796F7520666F72CD
:109020002073657474696E6700696E006F757400F3
:1090300070776D006477006177005265654B44720C
:10904000574F46526D4C6A5673335733557A366ACA
:1090500057594954536F3244354A00436C65617225
:10906000696E672073657420706F696E74732E006B
:1090700053657420706F696E747320636C656172E0
:1090800065642E0076770025322E37660041004356
:1090900000596F757220506F696E74733A00486999
:1090A000676820506F696E743A004C6F7720506F7C
:1090B000696E743A004C4F57004849474800474F83
:1090C0004F440054686520416D6269656E74204CA0
:1090D00069676874204C6576656C20706173736590
:1090E0006420746865206869676820706F696E74B1
:1090F00020796F75207365742E20546865206C6923
:10910000676874206C6576656C206973200054680C
:109110006520416D6269656E74204C6967687420D2
:109120004C6576656C207061737365642074686546
:10913000206C6F7720706F696E7420796F75207363
:1091400065742E20546865206C69676874206C65AE
:1091500076656C2069732000626C6E6B696E6600C8
:1091600076657200312E312E3000682D6265617493
:1091700000343500627566662D696E003130323418
:1091800000646576005061727469636C6520417299
:10919000676F6E006275696C64004A756C202033DD
:1091A00020323032322030383A35393A3537000003
:1091B0000064656661756C7420004D5342004C5329
:1091C00042003C53504953657474696E6773206460
:1091D000656661756C743E003C5350495365747408
:1091E000696E67732025732575202573204D4F44C4
:1091F0004525753E0000000000003E5B4F5B3E3E93
:109200006B4F6B3E1C3E7C3E1C183C7E3C181C5732
:109210007D571C1C5E7F5E1C00183C1800FFE7C3D6
:10922000E7FF0018241800FFE7DBE7FF30483A06A5
:109230000E2629792926407F050507407F05253F11
:109240005A3CE73C5A7F3E1C1C08081C1C3E7F14FD
:10925000227F22145F5F005F5F06097F017F006647
:1092600089956A606060606094A2FFA29408047EA1
:10927000040810207E201008082A1C08081C2A0850
:10928000081E101010100C1E0C1E0C30383E38300A
:10929000060E3E0E06000000000000005F00000009
:1092A00007000700147F147F14242A7F2A12231337
:1092B00008646236495620500008070300001C224B
:1092C00041000041221C002A1C7F1C2A08083E087D
:1092D000080080703000080808080800006060007E
:1092E00020100804023E5149453E00427F40007272
:1092F000494949462141494D331814127F102745E9
:109300004545393C4A494931412111090736494906
:109310004936464949291E00001400000040340027
:1093200000000814224114141414140041221408DB
:1093300002015909063E415D594E7C1211127C7F93
:10934000494949363E414141227F4141413E7F49A1
:109350004949417F090909013E414151737F08088C
:10936000087F00417F41002040413F017F081422D7
:10937000417F404040407F021C027F7F0408107FF5
:109380003E4141413E7F090909063E4151215E7F30
:1093900009192946264949493203017F01033F4003
:1093A00040403F1F2040201F3F4038403F6314088B
:1093B000146303047804036159494D43007F41411C
:1093C000410204081020004141417F0402010204CF
:1093D0004040404040000307080020545478407F3C
:1093E000284444383844444428384444287F385476
:1093F00054541800087E090218A4A49C787F08041D
:10940000047800447D40002040403D007F10284407
:109410000000417F40007C047804787C08040478D4
:109420003844444438FC1824241818242418FC7C9C
:1094300008040408485454542404043F44243C4081
:1094400040207C1C2040201C3C4030403C442810E4
:1094500028444C9090907C4464544C44000836411D
:1094600000000077000000413608000201020402FB
:109470003C2623263C1EA1A161123A4040207A38A6
:109480005454555921555579412254547842215507
:1094900054784020545579400C1E5272123955555B
:1094A0005559395454545939555454580000457C31
:1094B000410002457D420001457C407D1211127D34
:1094C000F0282528F07C545545002054547C547CC9
:1094D0000A097F4932494949323A4444443A324AB6
:1094E0004848303A4141217A3A42402078009DA0D4
:1094F000A07D3D4242423D3D4040403D3C24FF2452
:1095000024487E4943662B2FFC2F2BFF0929F62088
:10951000C0887E090320545479410000447D4130C5
:1095200048484A32384040227A007A0A0A727D0D51
:1095300019317D2629292F28262929292630484D09
:109540004020380808080808080808382F10C8AC58
:10955000BA2F102834FA00007B000008142A1422C5
:1095600022142A14085500550055AA55AA55AAFFD9
:1095700055FF55FF000000FF00101010FF001414ED
:1095800014FF001010FF00FF1010F010F01414145E
:10959000FC001414F700FF0000FF00FF1414F40493
:1095A000FC141417101F10101F101F1414141F0088
:1095B000101010F0000000001F101010101F1010ED
:1095C0001010F010000000FF1010101010101010FC
:1095D00010FF10000000FF140000FF00FF00001F3C
:1095E00010170000FC04F414141710171414F404DA
:1095F000F40000FF00F714141414141414F700F707
:10960000141414171410101F101F141414F4141031
:1096100010F010F000001F101F0000001F140000C9
:1096200000FC140000F010F01010FF10FF141414D0
:10963000FF141010101F00000000F010FFFFFFFFCC
:10964000FFF0F0F0F0F0FFFFFF0000000000FFFF70
:109650000F0F0F0F0F3844443844FC4A4A4A347EF7
:1096600002020606027E027E0263554941633844C7
:10967000443C04407E201E2006027E020299A5E79B
:10968000A5991C2A492A1C4C7201724C304A4D4D36
:10969000303048784830BC625A463D3E494949001E
:1096A0007E0101017E2A2A2A2A2A44445F4444403A
:1096B000514A444040444A51400000FF0103E080C9
:1096C000FF000008086B6B083612362436060F09B7
:1096D0000F06000018180000001010003040FF01B5
:1096E00001001F01011E00191D1712003C3C3C3CEB
:1096F000000000000000000000000000000000006A
:10970000000000000000000075580B0091710B0074
:10971000A5400B007B520B007D520B00AF520B009B
:109720008B520B009D520B00BD510B007B520B0066
:10973000A7540B00A5540B00C7520B0005530B0098
:109740003F530B0085530B00A1530B0025540B0016
:10975000000000000000000085590B00A5590B0017
:1097600075580B0091710B00555E0B007B520B007E
:109770007D520B00AF520B008B520B009D520B0021
:10978000BD510B007B520B00A7540B00F35F0B0085
:109790009B650B004D650B003F530B0085530B0081
:1097A000A1530B0025540B00000000000000000036
:1097B00069510B003D510B003F510B0000000000B0
:1097C0000001800000000000000000000380000095
:1097D0000000000000000007C000000000000000C2
:1097E000000007C00000000000000000000FC000E3
:1097F00000000000000000001FE00000000000006A
:109800000000001FE00000000000000000003FE03A
:109810000000000000000000003FF0000000000019
:10982000000000007FF0000000000000001FF87F33
:10983000F0000000000000003FFE7FF0000000008C
:109840000000003FFF7FF0000000000000001FFF4D
:10985000FBE0000000000000000FFFF9FFC0000067
:10986000000000000FFFF9FFF800000000000007F3
:10987000FFF1FFFF00000000000003FC73FFFF800A
:10988000000000000001FE3FFFFF8000000000001C
:1098900000FF1E0FFF000000000000007FFE1FFC05
:1098A000000000000000003FFFFFF8000000000083
:1098B00000000FDFFFE0000000000000001F19FFA4
:1098C000C0000000000000003F3CFF00000000005E
:1098D0000000007E7CF800000000000000007FFE19
:1098E0007C0000000000000000FFFFFC0000000002
:1098F00000000000FFFFFE0000000000000000FF6D
:10990000FFFE0000000000000001FFEFFE0000006D
:109910000000000001FFCFFE000000000000000377
:10992000FF07FE0000000000000003FC07FE00002F
:10993000000000000003F003FE0000000000000033
:10994000018000FE000000000000000000007E001A
:109950000000000000000000003E000000000000C9
:10996000000000000C000000000000078000FC0068
:109970000003C0000000078001FC000003C00000DD
:1099800000078001FC000003C0000000078001E028
:109990000000001E000000078001E00000001E0023
:1099A0007FE3F79FF9FDE7787BDFC0FFF7FFBFFD9F
:1099B000FDFF787BDFC0FFF7FFBFFDFDFF787BDF9A
:1099C000C0F0F787BC3DE1FF787BDE00F0F787BC95
:1099D0003DE1F0787BDE0000F787803DE1E0787BB9
:1099E000DE007FF7879FFDE1E0787BDE00FFF787F1
:1099F000BFFDE1E0787BDE00F0F787BC3DE1E07879
:109A00007BDE00F0F787BC3DE1E0787BDE00F0F71D
:109A100087BC3DE1E0787BDE00FFF7FFBFFDE1E0C2
:109A20007FFBDFC0FFF7FFBFFDE1E07FFBDFC07C16
:109A3000F3F39F3DE1E03E7BCFC00000000000005B
:109A40000000000000FFFFFFFFFFFFFFFFFFFFC060
:109A5000FFFFFFFFFD68DB111A31C0FFFFFFFFFDB5
:109A60002B5AFB6AEFC0FFFFFFFFFD4B5B3B1A3336
:109A7000C0FFFFFFFFFD6B5BDB6AFDC00000600005
:109A800000000000000000000000000000E00000F6
:109A9000000000000000000000000001E0000000E5
:109AA0000000000000000000000001F000000000C5
:109AB00000000000000000000003F00000000000B3
:109AC000000000000000000007F00000000000009F
:109AD0000000000000000007F80000000000000087
